{
  "contractName": "RedEnvelope",
  "abi": [
    {
      "constant": false,
      "inputs": [
        {
          "name": "guid",
          "type": "bytes32"
        },
        {
          "name": "playerAddress",
          "type": "address"
        },
        {
          "name": "playerMoney",
          "type": "uint256"
        }
      ],
      "name": "transferMoney",
      "outputs": [],
      "payable": true,
      "stateMutability": "payable",
      "type": "function"
    },
    {
      "constant": false,
      "inputs": [],
      "name": "killContract",
      "outputs": [],
      "payable": false,
      "stateMutability": "nonpayable",
      "type": "function"
    },
    {
      "constant": true,
      "inputs": [
        {
          "name": "arg",
          "type": "uint256"
        }
      ],
      "name": "test",
      "outputs": [
        {
          "name": "",
          "type": "uint256"
        }
      ],
      "payable": false,
      "stateMutability": "view",
      "type": "function"
    },
    {
      "constant": false,
      "inputs": [
        {
          "name": "guid",
          "type": "bytes32"
        }
      ],
      "name": "createPackage",
      "outputs": [],
      "payable": true,
      "stateMutability": "payable",
      "type": "function"
    },
    {
      "constant": false,
      "inputs": [
        {
          "name": "guid",
          "type": "bytes32"
        }
      ],
      "name": "transferRemainingMoney",
      "outputs": [],
      "payable": true,
      "stateMutability": "payable",
      "type": "function"
    },
    {
      "constant": true,
      "inputs": [
        {
          "name": "",
          "type": "uint256"
        }
      ],
      "name": "allPackagesMap",
      "outputs": [
        {
          "name": "sendAddress",
          "type": "address"
        },
        {
          "name": "money",
          "type": "uint256"
        },
        {
          "name": "remainingMoney",
          "type": "uint256"
        }
      ],
      "payable": false,
      "stateMutability": "view",
      "type": "function"
    },
    {
      "constant": false,
      "inputs": [
        {
          "name": "serverAdd",
          "type": "address"
        }
      ],
      "name": "setServerAddress",
      "outputs": [],
      "payable": true,
      "stateMutability": "payable",
      "type": "function"
    },
    {
      "constant": true,
      "inputs": [],
      "name": "viewOwnerAddress",
      "outputs": [
        {
          "name": "",
          "type": "address"
        }
      ],
      "payable": false,
      "stateMutability": "view",
      "type": "function"
    },
    {
      "constant": true,
      "inputs": [],
      "name": "viewServerAddress",
      "outputs": [
        {
          "name": "",
          "type": "address"
        }
      ],
      "payable": false,
      "stateMutability": "view",
      "type": "function"
    },
    {
      "constant": true,
      "inputs": [
        {
          "name": "inquireAddress",
          "type": "address"
        },
        {
          "name": "startID",
          "type": "uint256"
        }
      ],
      "name": "getLastPackage",
      "outputs": [
        {
          "name": "packageID",
          "type": "uint256"
        },
        {
          "name": "sendAddress",
          "type": "address"
        },
        {
          "name": "money",
          "type": "uint256"
        },
        {
          "name": "remainingMoney",
          "type": "uint256"
        }
      ],
      "payable": false,
      "stateMutability": "view",
      "type": "function"
    },
    {
      "constant": true,
      "inputs": [],
      "name": "viewCommission",
      "outputs": [
        {
          "name": "",
          "type": "uint256"
        }
      ],
      "payable": false,
      "stateMutability": "view",
      "type": "function"
    },
    {
      "constant": false,
      "inputs": [
        {
          "name": "target",
          "type": "address"
        }
      ],
      "name": "getContractMoney",
      "outputs": [],
      "payable": true,
      "stateMutability": "payable",
      "type": "function"
    },
    {
      "constant": true,
      "inputs": [
        {
          "name": "guid",
          "type": "bytes32"
        }
      ],
      "name": "getPackageData",
      "outputs": [
        {
          "name": "packageID",
          "type": "uint256"
        },
        {
          "name": "sendAddress",
          "type": "address"
        },
        {
          "name": "money",
          "type": "uint256"
        },
        {
          "name": "remainingMoney",
          "type": "uint256"
        }
      ],
      "payable": false,
      "stateMutability": "view",
      "type": "function"
    },
    {
      "constant": true,
      "inputs": [
        {
          "name": "",
          "type": "bytes32"
        }
      ],
      "name": "allPackagesAddressMap",
      "outputs": [
        {
          "name": "",
          "type": "uint256"
        }
      ],
      "payable": false,
      "stateMutability": "view",
      "type": "function"
    },
    {
      "inputs": [],
      "payable": true,
      "stateMutability": "payable",
      "type": "constructor"
    },
    {
      "anonymous": false,
      "inputs": [
        {
          "indexed": false,
          "name": "packageID",
          "type": "uint256"
        },
        {
          "indexed": false,
          "name": "remainingMoney",
          "type": "uint256"
        }
      ],
      "name": "logEvent",
      "type": "event"
    },
    {
      "anonymous": false,
      "inputs": [
        {
          "indexed": false,
          "name": "state",
          "type": "bool"
        }
      ],
      "name": "runFunState",
      "type": "event"
    }
  ],
  "bytecode": "0x6060604052600060028190555033600360006101000a81548173ffffffffffffffffffffffffffffffffffffffff021916908373ffffffffffffffffffffffffffffffffffffffff160217905550610cfc8061005c6000396000f3006060604052600436106100d0576000357c0100000000000000000000000000000000000000000000000000000000900463ffffffff16806319c0f38a146100d55780631c02708d1461011957806329e99f071461012e578063336fa7a61461016557806345d6eb491461018157806346460a261461019d57806347b64eb01461020e578063496bb3281461023c578063607032ed1461029157806382844d2e146102e6578063874c86d71461037d5780638a77f517146103a6578063b4d6d4c7146103d4578063dce3913f14610450575b600080fd5b61011760048080356000191690602001909190803573ffffffffffffffffffffffffffffffffffffffff1690602001909190803590602001909190505061048b565b005b341561012457600080fd5b61012c6105e7565b005b341561013957600080fd5b61014f600480803590602001909190505061067e565b6040518082815260200191505060405180910390f35b61017f60048080356000191690602001909190505061068b565b005b61019b6004808035600019169060200190919050506107a6565b005b34156101a857600080fd5b6101be60048080359060200190919050506108c6565b604051808473ffffffffffffffffffffffffffffffffffffffff1673ffffffffffffffffffffffffffffffffffffffff168152602001838152602001828152602001935050505060405180910390f35b61023a600480803573ffffffffffffffffffffffffffffffffffffffff16906020019091905050610910565b005b341561024757600080fd5b61024f6109b0565b604051808273ffffffffffffffffffffffffffffffffffffffff1673ffffffffffffffffffffffffffffffffffffffff16815260200191505060405180910390f35b341561029c57600080fd5b6102a46109da565b604051808273ffffffffffffffffffffffffffffffffffffffff1673ffffffffffffffffffffffffffffffffffffffff16815260200191505060405180910390f35b34156102f157600080fd5b610326600480803573ffffffffffffffffffffffffffffffffffffffff16906020019091908035906020019091905050610a04565b604051808581526020018473ffffffffffffffffffffffffffffffffffffffff1673ffffffffffffffffffffffffffffffffffffffff16815260200183815260200182815260200194505050505060405180910390f35b341561038857600080fd5b610390610b44565b6040518082815260200191505060405180910390f35b6103d2600480803573ffffffffffffffffffffffffffffffffffffffff16906020019091905050610b4e565b005b34156103df57600080fd5b6103f9600480803560001916906020019091905050610c22565b604051808581526020018473ffffffffffffffffffffffffffffffffffffffff1673ffffffffffffffffffffffffffffffffffffffff16815260200183815260200182815260200194505050505060405180910390f35b341561045b57600080fd5b610475600480803560001916906020019091905050610cb8565b6040518082815260200191505060405180910390f35b6000600560009054906101000a900473ffffffffffffffffffffffffffffffffffffffff1673ffffffffffffffffffffffffffffffffffffffff163373ffffffffffffffffffffffffffffffffffffffff161415156104e957600080fd5b600160008560001916600019168152602001908152602001600020549050633b9aca008202915081600080838152602001908152602001600020600201541015151561053457600080fd5b816000808381526020019081526020016000206002015403600080838152602001908152602001600020600201819055508273ffffffffffffffffffffffffffffffffffffffff166108fc839081150290604051600060405180830381858888f1935050505015156105a557600080fd5b7fa0d3be111bea5c685d0977d5bfb1fa31508ca899f2b0c3e9205eb5c35015202d6001604051808215151515815260200191505060405180910390a150505050565b600360009054906101000a900473ffffffffffffffffffffffffffffffffffffffff1673ffffffffffffffffffffffffffffffffffffffff163373ffffffffffffffffffffffffffffffffffffffff1614151561064357600080fd5b600360009054906101000a900473ffffffffffffffffffffffffffffffffffffffff1673ffffffffffffffffffffffffffffffffffffffff16ff5b6000809150819050919050565b600060026000815480929190600101919050555060025490506060604051908101604052803373ffffffffffffffffffffffffffffffffffffffff1681526020013481526020013481525060008083815260200190815260200160002060008201518160000160006101000a81548173ffffffffffffffffffffffffffffffffffffffff021916908373ffffffffffffffffffffffffffffffffffffffff160217905550602082015181600101556040820151816002015590505080600160008460001916600019168152602001908152602001600020819055507fa0d3be111bea5c685d0977d5bfb1fa31508ca899f2b0c3e9205eb5c35015202d6001604051808215151515815260200191505060405180910390a15050565b6000600560009054906101000a900473ffffffffffffffffffffffffffffffffffffffff1673ffffffffffffffffffffffffffffffffffffffff163373ffffffffffffffffffffffffffffffffffffffff1614151561080457600080fd5b60016000836000191660001916815260200190815260200160002054905060016000808381526020019081526020016000206002015411151561084657600080fd5b600080828152602001908152602001600020600201546004600082825401925050819055506001600080838152602001908152602001600020600201819055507fa0d3be111bea5c685d0977d5bfb1fa31508ca899f2b0c3e9205eb5c35015202d6001604051808215151515815260200191505060405180910390a15050565b60006020528060005260406000206000915090508060000160009054906101000a900473ffffffffffffffffffffffffffffffffffffffff16908060010154908060020154905083565b600360009054906101000a900473ffffffffffffffffffffffffffffffffffffffff1673ffffffffffffffffffffffffffffffffffffffff163373ffffffffffffffffffffffffffffffffffffffff1614151561096c57600080fd5b80600560006101000a81548173ffffffffffffffffffffffffffffffffffffffff021916908373ffffffffffffffffffffffffffffffffffffffff16021790555050565b6000600360009054906101000a900473ffffffffffffffffffffffffffffffffffffffff16905090565b6000600560009054906101000a900473ffffffffffffffffffffffffffffffffffffffff16905090565b6000806000806000600160025410151515610a1e57600080fd5b60025486101580610a2f5750600086145b15610a3a5760025495505b8590505b6000811115610b2e578673ffffffffffffffffffffffffffffffffffffffff1660008083815260200190815260200160002060000160009054906101000a900473ffffffffffffffffffffffffffffffffffffffff1673ffffffffffffffffffffffffffffffffffffffff161415610b205780945060008082815260200190815260200160002060000160009054906101000a900473ffffffffffffffffffffffffffffffffffffffff169350600080828152602001908152602001600020600101549250600080828152602001908152602001600020600201549150610b2e565b808060019003915050610a3e565b8484848494509450945094505092959194509250565b6000600454905090565b600560009054906101000a900473ffffffffffffffffffffffffffffffffffffffff1673ffffffffffffffffffffffffffffffffffffffff163373ffffffffffffffffffffffffffffffffffffffff16141515610baa57600080fd5b6004543073ffffffffffffffffffffffffffffffffffffffff163110151515610bd257600080fd5b8073ffffffffffffffffffffffffffffffffffffffff166108fc6001600454039081150290604051600060405180830381858888f193505050501515610c1757600080fd5b600160048190555050565b6000806000806001600086600019166000191681526020019081526020016000205493508360008086815260200190815260200160002060000160009054906101000a900473ffffffffffffffffffffffffffffffffffffffff16600080878152602001908152602001600020600101546000808881526020019081526020016000206002015493509350935093509193509193565b600160205280600052604060002060009150905054815600a165627a7a7230582094a488535ce8e7f6f53a391e0ddfa65b97663ebb58797823df9460ea9de12d9e0029",
  "source": "pragma solidity ^0.4.17;\ncontract RedEnvelope{\n\n    struct PackageData{\n        address sendAddress; //发红包的玩家地址\n        uint money; // 红包里一开始有的钱\n        uint remainingMoney;  //当前红包剩余的钱，后期如果用不到，就删掉\n    }\n\n    mapping (uint => PackageData) public allPackagesMap;//用来把PackageID和Package信息连起来\n    mapping (bytes32 => uint) public allPackagesAddressMap;//用来把创建红包的生成hash和PackageID信息连起来\n    \n    uint maxPackageID;\n    address owner;\n    \n    uint commission;//合约里的钱\n    address serverAddress;\n\n\n    event logEvent(uint packageID, uint remainingMoney);\n    event runFunState(bool state);\n\n\n\n    function RedEnvelope() public payable{\n         maxPackageID=0;\n         owner = msg.sender;\n    }\n\n    modifier onlyOwner {\n        require (msg.sender == owner);\n        _;\n    }\n\n    modifier onlyServerAddress {\n        require (msg.sender == serverAddress);\n        _;\n    }\n\n    //set server address\n    function setServerAddress( address serverAdd ) public payable onlyOwner {\n        serverAddress = serverAdd;\n    }\n\n    // get commission money\n    function getContractMoney(address target) public payable onlyServerAddress{\n        require( this.balance >= commission );\n        target.transfer( commission-1 );\n        commission = 1;\n    }\n\n    //kill self\n    function killContract() public onlyOwner{\n        selfdestruct( owner );\n    }\n\n    // //这个接口，使用 随机哈希 查询是否当前哈希是否存在\n    // function isExist( bytes32 guid ) public view returns ( uint ){\n    //     return allPackagesAddressMap[ guid ];\n    // }\n\n    //这个接口创造红包\n    function createPackage(bytes32 guid) public payable{\n        //1、maxPackageID加一，ID自增长\n        //2、创建PackageData结构体\n        //3、把它扔到allPackagesMap\n        //4、返回新创建的这个Package的ID\n        // require( guid==\"xxxxxx\" );\n        maxPackageID++;\n        uint packageID = maxPackageID;\n        allPackagesMap[packageID] = PackageData(msg.sender, msg.value, msg.value);\n        allPackagesAddressMap[guid] = packageID;\n        runFunState(true);\n    }\n\n    //这个接口给抢到红包的玩家transfer money\n    function transferMoney(bytes32 guid, address playerAddress, uint playerMoney) public payable \n    onlyServerAddress\n    {\n        // 1、判断执行者是否是owner，只有owner才能执行此操作\n        // 2、取出 package 中的信息，判断剩余金额是否大于/等于要转出的金额，如果小于，throw\n        // 3、将参数数组中的adds，和money值取出，转钱\n        // 4、将剩余的钱存到合约commission中，便于随时将合约的钱转出\n        // 5、将红包里的剩余金额置零\n        // 6、广播成功事件\n        // require( guid==\"xxxxxx\" );\n        uint packageID = allPackagesAddressMap[guid];\n        playerMoney = playerMoney*10**9;\n        require( allPackagesMap[packageID].remainingMoney >= playerMoney );\n        allPackagesMap[packageID].remainingMoney  = allPackagesMap[packageID].remainingMoney - playerMoney;\n        playerAddress.transfer( playerMoney );\n        runFunState(true);\n        \n    }\n\n    //这个接口将某个红包里剩余的钱转到合约中，红包清零\n    function transferRemainingMoney(bytes32 guid) public payable \n    onlyServerAddress\n    {\n        // 1、这个接口是在红包中的钱被最后一个取走后，或24小时后红包中的钱仍然存在，转回发红包的账户后，红包中仍然有剩余的钱（ 除不尽的数/佣金等 ），才执行的\n        // 2、将剩余的钱存到合约commission中，便于随时将合约的钱转出\n        // 3、将红包里的剩余金额置零\n        // 4、广播成功事件\n        uint packageID = allPackagesAddressMap[guid];\n        require( allPackagesMap[packageID].remainingMoney > 1 );\n        commission += allPackagesMap[packageID].remainingMoney;\n        allPackagesMap[packageID].remainingMoney = 1;\n        runFunState(true);\n        \n    }\n\n    //这个接口使用 发送者的地址 来获取最近的发送出的红包信息\n    function getLastPackage(address inquireAddress, uint startID) public view returns (uint packageID, address sendAddress, uint money, uint remainingMoney){\n        require(maxPackageID>=1);\n        if( startID >= maxPackageID || startID == 0 ){\n            startID = maxPackageID;\n        }    \n        for (uint i=startID; i>0; i--){\n            if ( allPackagesMap[i].sendAddress == inquireAddress ){\n                packageID = i;\n                sendAddress = allPackagesMap[i].sendAddress;\n                money = allPackagesMap[i].money;\n                remainingMoney = allPackagesMap[i].remainingMoney;\n                break;\n            }\n        }\n        return ( packageID, sendAddress, money, remainingMoney ); \n    }\n\n    //这个接口使用 随机哈希 查询对应的红包信息\n    function getPackageData( bytes32 guid ) public view returns ( uint packageID, address sendAddress, uint money, uint remainingMoney)\n    // onlyServerAddress\n    {\n        packageID = allPackagesAddressMap[guid];\n        return ( packageID, allPackagesMap[packageID].sendAddress, allPackagesMap[packageID].money, allPackagesMap[packageID].remainingMoney );\n    }\n\n\n\n    //自测\n    function test( uint arg )  public view returns (uint){\n        arg = 0;\n        return arg;\n    }\n\n    //这个接口自测server address\n    function viewServerAddress() public view returns (address)\n    {\n        return serverAddress;\n    }\n\n    //这个接口自测owner\n    function viewOwnerAddress() public view returns (address)\n    {\n        return owner;\n    }\n\n    //这个接口自测commission\n    function viewCommission() public view returns (uint)\n    {\n        return commission;\n    }\n\n}\n",
  "sourcePath": "/Users/squall/dApp/RedEnvelope/contracts/RedEnvelope.sol",
  "compiler": {
    "name": "solc",
    "version": "0.4.18+commit.9cf6e910.Emscripten.clang"
  },
  "schemaVersion": "1.0.1",
  "updatedAt": "2018-03-22T07:39:31.756Z"
}